:1000000020C03AC039C028C460C3F9C39EC3CAC364
:100010002FC3DBC231C030C02FC02EC040C12CC0A6
:100020002BC02AC029C000000100080040000001C8
:1000300000040000010008002000400080000001D2
:10004000000411241FBECFE5D4E0DEBFCDBF10E019
:10005000A0E6B0E0EAEBF9E002C005900D92A4360C
:10006000B107D9F710E0A4E6B0E001C01D92A538B1
:10007000B107E1F739D0A0C4C3CF979A969A959A61
:10008000882331F0833021F0843011F0863009F478
:100090009798813031F0853021F0843011F086302E
:1000A00009F49698823039F0853029F0833019F0C0
:1000B000863009F0089595980895C1989198B99A55
:1000C000939A929A8F9A8E9A8D9A979A969A959ACF
:1000D000B1D0FFD081E0F8D080E89CE031D243D2AB
:1000E00081E0CBDF78940895CF93DF93E6DF839BA5
:1000F00077C0829929C0C0916800D0916900829B25
:1001000008C020C080E89CE08C1B9D0B58D28299CF
:1001100019C083E0B2DF81E0A7D025ED31E0281BD4
:10012000390BC9016AE070E0E3D3C60FD71FD7FFD0
:10013000E9CFC0E0D0E080E89CE08C1B9D0B3FD273
:10014000829BE7CF81E099DF81E08ED0BC016C56C5
:100150007240CB01AA2797FDA095BA2F64597D4F15
:1001600020916400309165004091660050916700D5
:10017000280F391F4A1F5B1F2093640030936500CE
:10018000409366005093670057FD32C08091600035
:1001900090916100A0916200B09163008217930773
:1001A000A407B5071CF0615073407CF18C9A82E083
:1001B00064DF84E059D09C01220F331F280F391FC0
:1001C000309369002093680080E89CE0821B930BC9
:1001D000F6D18DCF8C9A80E050DF84E690E06ED02F
:1001E000839BF8CF829BF6CF8C9881E046DF81CF4E
:1001F00020E030E040E050E0109264001092650092
:100200001092660010926700C1CF8C9881E035DFB4
:10021000D0CF33983798089596B1987F982B96B998
:10022000089597B18295880F880F807C9F73982BD3
:1002300097B90895379A359886E0EEDF81E0F1DFCF
:100240003D98339A109278007894089597B18F7101
:10025000907E892B87B90895349A369A089586B18D
:1002600090E08074907008951092780097B18F712B
:10027000907E892B87B9349A369A3699FECF24B16D
:1002800085B190E0982F882730E0822B932B08953A
:10029000EBDF969587959695879590E008951F9248
:1002A0000F920FB60F9211248F938FEF80937800E7
:1002B0008F910F900FBE0F901F901895089593B7D0
:1002C000987F982B93BF08959EB5987F982B9EBDDD
:1002D000089583E0F9DF1DBC1CBC89B7846089BF29
:1002E000089595B5987F982B95BD0895E3B7F0E0F4
:1002F000E770F070EE0FFF1FEA5DFF4F859194915C
:100300000895EEB5F0E0E770F070EE0FFF1FEA5DC4
:10031000FF4F859194910895E5B5F0E0E770F07096
:10032000EE0FFF1FEE5CFF4F85919491089587308B
:1003300040F4E82FF0E0EE0FFF1FE659FF4F718306
:1003400060830895873040F4E82FF0E0EE0FFF1F40
:10035000E659FF4F118210820895EF92FF920F939A
:100360001F938C01F2B610927D0010927E001092C5
:100370007F0010928000BADF9C0140E050E060E016
:1003800072E18AE790E0E9D2CA01B901693B2DE840
:10039000720726E0820720E0920728F427E2013165
:1003A000120708F458C028EE33E040E050E0B3D222
:1003B000CA01B901980140E050E07BD2AB01BC0119
:1003C00080917D0090917E00A0917F00B09180008F
:1003D00022B74F0D511D611D711D7A018B01BA2F7E
:1003E000A92F982F882730E040E050E0822B932BF4
:1003F000A42BB52B8E159F05A007B107C0F58091E2
:100400007D0090917E00A0917F00B091800085B723
:100410008F7885BF85B7806885BF889585B78F77CA
:1004200085BF20917D0030917E0040917F005091EA
:10043000800082B790E0A0E0B0E0542F432F322F2D
:100440002227822B932BA42BB52B8E159F05A0075B
:10045000B107A8F20CC0980140E050E02AD228EE83
:1004600033E040E050E057D2BA01A901A9CF1F9173
:100470000F91FF90EF9008951092790010927A00FA
:1004800010927B0010927C00089582E018DF12BE6B
:1004900089B7816089BFF0DF08956091790070911C
:1004A0007A0080917B0090917C00089510928100E9
:1004B000109282001092830010928400089584E0CC
:1004C00010DF14BC89B7806489BFF0DF0895CF9333
:1004D000DF9380E037DFC1E0D0E08C2F33DF21965F
:1004E000C730D105D1F7D1DFF4DEE9DF7894DF91B1
:1004F000CF91089560918100709182008091830076
:10050000909184000895893049F08A3071F08FB558
:100510008D7F8FBD8FB581608FBD0DC08FB582601F
:100520008FBD8FB58E7F8FBD06C08FB582608FBDAA
:100530008FB581608FBD1BBC1ABC19BC18BC089557
:100540002FB52E7F2FBD2FB522602FBD2EB5286071
:100550002EBD2EB520612EBD97BD86BD1BBC1ABC1D
:1005600019BC18BC08958FB580688FBD8FB58F7B7F
:100570008FBD08958FB580688FBD8FB58F7B8FBD80
:1005800008958FB580628FBD8FB58F7E8FBD089522
:100590008FB58F778FBD8FB58F7B8FBD08958FB54A
:1005A0008F7D8FBD8FB58F7E8FBD08958FB58D7F69
:1005B0008FBD8FB58E7F8FBDEBDFF1DF08959BBDC3
:1005C0008ABD089599BD88BD08951F920F920FB6F8
:1005D0000F9211242F933F934F935F936F937F93C9
:1005E0008F939F93AF93BF93EF93FF938091790085
:1005F00090917A00A0917B00B0917C000196A11DA2
:10060000B11D8093790090937A00A0937B00B09302
:100610007C0080917D0090917E00A0917F00B09140
:1006200080000196A11DB11D80937D0090937E00F6
:10063000A0937F00B093800080916A0090916B003E
:10064000892B29F0E0916A00F0916B000995FF91E8
:10065000EF91BF91AF919F918F917F916F915F913A
:100660004F913F912F910F900FBE0F901F901895B3
:100670001F920F920FB60F9211242F933F934F9317
:100680005F936F937F938F939F93AF93BF93EF93FA
:10069000FF9380916C0090916D00892B29F0E0917F
:1006A0006C00F0916D000995FF91EF91BF91AF91B2
:1006B0009F918F917F916F915F914F913F912F917A
:1006C0000F900FBE0F901F9018951F920F920FB6AC
:1006D0000F9211242F933F934F935F936F937F93C8
:1006E0008F939F93AF93BF93EF93FF93809181007C
:1006F00090918200A0918300B09184000196A11D89
:10070000B11D8093810090938200A0938300B093E9
:1007100084008091740090917500892B29F0E091FC
:100720007400F09175000995FF91EF91BF91AF9121
:100730009F918F917F916F915F914F913F912F91F9
:100740000F900FBE0F901F9018951F920F920FB62B
:100750000F9211242F933F934F935F936F937F9347
:100760008F939F93AF93BF93EF93FF9380916E000E
:1007700090916F00892B29F0E0916E00F0916F004D
:100780000995FF91EF91BF91AF919F918F917F91CB
:100790006F915F914F913F912F910F900FBE0F90EE
:1007A0001F9018951F920F920FB60F9211242F933E
:1007B0003F934F935F936F937F938F939F93AF93E9
:1007C000BF93EF93FF938091700090917100892BFC
:1007D00029F0E0917000F09171000995FF91EF917F
:1007E000BF91AF919F918F917F916F915F914F9149
:1007F0003F912F910F900FBE0F901F9018951F9251
:100800000F920FB60F9211242F933F934F935F9344
:100810006F937F938F939F93AF93BF93EF93FF93C8
:100820008091720090917300892B29F0E091720001
:10083000F09173000995FF91EF91BF91AF919F9156
:100840008F917F916F915F914F913F912F910F9079
:100850000FBE0F901F9018951F920F920FB60F9218
:1008600011242F933F934F935F936F937F938F93B5
:100870009F93AF93BF93EF93FF93809176009091F6
:100880007700892B29F0E0917600F09177000995A7
:10089000FF91EF91BF91AF919F918F917F916F9158
:1008A0005F914F913F912F910F900FBE0F901F902E
:1008B0001895629FD001739FF001829FE00DF11D9A
:1008C000649FE00DF11D929FF00D839FF00D749FCA
:1008D000F00D659FF00D9927729FB00DE11DF91F76
:1008E000639FB00DE11DF91FBD01CF0111240895D3
:1008F00097FB092E07260AD077FD04D049D006D0F1
:1009000000201AF4709561957F4F0895F6F7909541
:1009100081959F4F0895A1E21A2EAA1BBB1BFD01D2
:100920000DC0AA1FBB1FEE1FFF1FA217B307E407CE
:10093000F50720F0A21BB30BE40BF50B661F771F26
:10094000881F991F1A9469F7609570958095909506
:100950009B01AC01BD01CF01089597FB092E05262F
:100960000ED057FD04D0D7DF0AD0001C38F45095C4
:100970004095309521953F4F4F4F5F4F0895F6F7C3
:1009800090958095709561957F4F8F4F9F4F0895FB
:10099000AA1BBB1B51E107C0AA1FBB1FA617B707A5
:1009A00010F0A61BB70B881F991F5A95A9F78095C1
:0A09B0009095BC01CD010895FFCF22
:0409BA0050C3000026
:00000001FF
